:100000000C948D000C94AA000C94AA000C94AA00E5
:100010000C94F5000C94AA000C94AA000C94AA006D
:100020000C94AA000C94AA000C94AA000C94AA00A8
:100030000C94AA000C94AA000C94DE040C94AA0060
:100040000C94AA000C94AA000C942A040C94E803C3
:100050000C94AA000C94AA000C94AA000C94AA0078
:100060000C94AA000C94AA002020005445454B4F44
:10007000002B2D2D2B2D2D2B2D2D2B2D2D2B2D2DE7
:100080002B007C20207C20207C20207C20207C20B9
:10009000207C002B2D2D2B2D2D2B2D2D2B2D2D2B85
:1000A0002D2D2B005072657373206120627574745E
:1000B0006F6E20746F207374617274206167616960
:1000C0006E0047414D45204F56455200435353451E
:1000D000323031302070726F6A656374206279202B
:1000E000486975205969204E414D203436363034E8
:1000F000353633005465656B6F001B5B3F32356CE2
:10010000001B5B25646D001B5B324A001B5B306D7E
:10011000001B5B25643B2564480011241FBECFEF04
:10012000D8E0DEBFCDBF11E0A0E0B1E0E4EEF0E149
:1001300002C005900D92AE30B107D9F722E0AEE0D3
:10014000B1E001C01D92A036B207E1F70E9424037E
:100150000C9470080C940000E8E6F0E08081826066
:1001600080838BB382608BBBECE6F0E080818F6094
:10017000808310921E0180E00DC0E82FF0E0EE0FAA
:10018000FF1FEE0FFF1FE25FFE4F108211821282EF
:1001900013828F5F843088F3089580911E011816B2
:1001A00014F580911F016FB7F89491E009C0F9012F
:1001B000E15EFE4F4081F901E25EFE4F40839F5FAA
:1001C000292F30E040911E01042E000C550B2417FE
:1001D00035076CF390911E01915090931E01662398
:1001E0001CF4789408958FEF08951F920F920FB624
:1001F0000F921124CF92DF92EF92FF920F931F93F1
:100200002F933F934F935F936F937F938F939F931E
:10021000AF93BF93CF93DF93EF93FF93D6B1DF708C
:100220000E94CE046B017C01C0E066C00C2F10E080
:100230008D2F90E00C2E02C0959587950A94E2F7D9
:100240009C012170332780FF3CC08091230190E006
:100250000C2E02C0959587950A94E2F780FD31C077
:1002600080911E018430FCF4F801EE0FFF1FEE0FA9
:10027000FF1FE25FFE4F80819181A281B3814E9684
:10028000A11DB11DC816D906EA06FB0660F0E09173
:100290001E0181E08E0F80931E010E2E000CFF0BBD
:1002A000E15EFE4FC0830E94CE04000F111F000FBD
:1002B000111FF801E25FFE4F608371838283938395
:1002C0001AC0232BC1F48091230190E0002E02C0BC
:1002D000959587950A94E2F780FF0DC00E94CE04A1
:1002E000000F111F000F111FF801E25FFE4F608326
:1002F000718382839383CF5FC43008F497CFD09308
:100300002301FF91EF91DF91CF91BF91AF919F9129
:100310008F917F916F915F914F913F912F911F919D
:100320000F91FF90EF90DF90CF900F900FBE0F9046
:100330001F9018951F93CF93DF930E94AD0481E225
:100340000E94A00410E025C0C12FD0E0BE01660FBE
:10035000771F6B5F7F4F8DE290E00E947D0483E901
:1003600090E09F938F930E948205BE016D5F7F4F47
:10037000660F771F8DE290E00E947D0482E890E096
:100380009F938F930E9482051F5F0F900F900F9095
:100390000F901530C8F26FE070E08DE290E00E949F
:1003A0007D0481E790E09F938F930E9482050E94D5
:1003B0008E040F900F90DF91CF911F91089565E00B
:1003C00070E08DE290E00E947D0480E20E94A00433
:1003D0008BE690E09F938F930E9482050F900F9081
:1003E0000895CF93DF93C82FD62F413031F042309C
:1003F00031F0433031F48BE205C08AE203C089E278
:1004000001C088E20E94A00467E070E06D1B7109E2
:100410008C2F90E09C01220F331F820F931F660FD9
:10042000771F8E960E947D0488E690E09F938F93BD
:100430000E9482050E948E040F900F90DF91CF9151
:1004400008950E949A0130E014C0832F90E0FC01CF
:10045000EE0FFF1FEE0FFF1FE80FF91FE65DFE4FC7
:10046000E20FF11D10822F5F01C020E0253068F3FC
:100470003F5F3530D0F381E08093430182E0809389
:10048000450180932901109244010895853080F43C
:10049000653080F490E0FC01EE0FFF1FEE0FFF1FB0
:1004A000E80FF91FE65DFE4FE60FF11D808108950C
:1004B00080E0089580E00895CF93DF938091440118
:1004C000882371F0D0912901C09145016D2F8C2FA7
:1004D0000E944602482F6D2F8C2F0E94F10107C009
:1004E00043E060912901809145010E94F1019091C2
:1004F000440181E0891B80934401DF91CF910895ED
:10050000089580E008950E94AC0040E060E076E944
:1005100080E090E00E9495030E94B60478940895CC
:100520000E9497046AE070E08AE090E00E947D04F7
:1005300084EF90E09F938F930E9482056CE070E0BF
:100540008AE090E00E947D048CEC90E09F938F9372
:100550000E9482050E94DF010F900F900F900F9074
:100560000E94DC03882339F080915A0290915B024B
:100570000E94440501C08FEF833731F0833521F0AD
:100580000E94CD008F3F61F308950E9497040E945E
:1005900021020E94CD000E94E30308958F929F9252
:1005A000AF92BF92CF92DF92EF92FF920E94CE0461
:1005B0004B015C011BC00E94CD00833021F460E040
:1005C0008FEF0E9480020E94CE046B017C01D50156
:1005D000C4018C509E4FAF4FBF4FC816D906EA06D4
:1005E000FB0620F00E945C02460157010E94810236
:1005F000882309F3FF90EF90DF90CF90BF90AF90EA
:100600009F908F9008956EE070E08AE090E00E94E5
:100610007D0482EC90E09F938F930E9482056FE0AF
:1006200070E08AE090E00E947D0484EA90E09F936D
:100630008F930E9482050F900F900F900F900E9451
:10064000CD008F3FE1F308950E9483020E94900243
:100650000E94C5020E94CE020E940303F9CFCF93ED
:10066000C82F8A3019F48DE00E942F039FB790782D
:1006700002C0992329F1809147018F3FD1F3F8946B
:10068000E091460181E08E0F80934601F0E0E85B47
:10069000FE4FC083809147018F5F80934701809117
:1006A00046018F3F11F410924601E1ECF0E08081A9
:1006B00080628083992339F0789480E090E005C0CF
:1006C00081E090E002C080E090E0CF9108958091B9
:1006D00059028823E1F32FB72078F89480914702DC
:1006E0003091590290E0831B91095AF4E09147023E
:1006F00080915902F0E0E81BF109E85AFD4F808132
:100700000AC0E091470280915902F0E0E81BF1092C
:10071000E85BFD4F8081909159029150909359026E
:10072000222309F0789490E00895109246011092E7
:1007300047011092470210925902109258024093BA
:100740002401DC01CB01880F991FAA1FBB1F880F52
:10075000991FAA1FBB1F9C01AD01220F331F441F0D
:10076000551F60E074E284EF90E00E940305BA0137
:10077000A9014F5F5F4F6F4F7F4FDB01CA011AF432
:100780000196A11DB11DB595A795979587950197E0
:100790009093C5008093C400E1ECF0E088E1808391
:1007A000808180688083EAE5F2E080E091E09383D5
:1007B00082839183808308959091590281E0911101
:1007C00001C080E0089510924702109259020895E6
:1007D0001F920F920FB60F9211242F938F939F9316
:1007E000EF93FF9380914701882329F1809146017F
:1007F0002091470190E0821B91095AF4E091460153
:1008000080914701F0E0E81BF109E95BFD4F908121
:100810000AC0E091460180914701F0E0E81BF10930
:10082000E85BFE4F908180914701815080934701A2
:100830009093C60005C0E1ECF0E080818F7D80835D
:10084000FF91EF919F918F912F910F900FBE0F907D
:100850001F9018951F920F920FB60F9211242F938D
:100860003F934F935F936F937F938F939F93AF9338
:10087000BF93CF93EF93FF93C091C6008091240163
:10088000882349F0809147018F3F29F060E070E0B4
:100890008C2F0E942F0380915902803120F081E03B
:1008A0008093580218C0CD3009F4CAE0E0914702A5
:1008B00081E08E0F80934702F0E0E85BFD4FC0833C
:1008C000809159028F5F8093590280914702803155
:1008D00011F410924702FF91EF91CF91BF91AF9128
:1008E0009F918F917F916F915F914F913F912F9148
:1008F0000F900FBE0F901F9018959F938F937F932B
:100900006F9381E191E09F938F930E9482050F90F6
:100910000F900F900F900F900F9008958CE091E042
:100920009F938F930E9482050F900F90089587E008
:1009300091E09F938F930E9482050F900F900895EE
:100940001F928F9381E091E09F938F930E94820585
:100950000F900F900F900F9008958AEF90E09F9363
:100960008F930E9482050F900F9008951092250199
:1009700010922601109227011092280116BC89EFCF
:1009800087BD82E084BD83E085BDEEE6F0E0808136
:100990008260808385B3827085BB08958FB7282FCE
:1009A0002078F894609125017091260180912701AB
:1009B00090912801222309F0789408951F920F92B4
:1009C0000FB60F9211248F939F93AF93BF93809193
:1009D000250190912601A0912701B091280101964F
:1009E000A11DB11D8093250190932601A09327019D
:1009F000B0932801BF91AF919F918F910F900FBE3F
:100A00000F901F901895052E97FB1EF400940E94DE
:100A10001A0557FD07D00E94220507FC03D04EF4AB
:100A20000C941A0550954095309521953F4F4F4FA6
:100A30005F4F089590958095709561957F4F8F4F8A
:100A40009F4F0895A1E21A2EAA1BBB1BFD010DC0EA
:100A5000AA1FBB1FEE1FFF1FA217B307E407F5076E
:100A600020F0A21BB30BE40BF50B661F771F881F4A
:100A7000991F1A9469F760957095809590959B01E0
:100A8000AC01BD01CF010895CF93DF93EC012B8121
:100A900020FF33C026FF0AC02F7B2B838E819F81CE
:100AA00001969F838E838A8190E029C022FF0FC028
:100AB000E881F9818081082E000C990B009719F4C8
:100AC00020622B831AC03196F983E8830EC0EA8531
:100AD000FB85099597FF09C02B81019611F080E2F3
:100AE00001C080E1822B8B8308C02E813F812F5F64
:100AF0003F4F3F832E83992702C08FEF9FEFDF91F7
:100B0000CF910895A0E0B0E0E8E8F5E00C94470844
:100B1000AE01495F5F4FDA016D917D91AD010AE54C
:100B200012E0F80182819381DC0113962C911397D6
:100B3000286013962C930E94A805D8011296ED9177
:100B4000FC9113972381277F2383E4E00C946308AF
:100B5000ABE0B0E0EEEAF5E00C9439086C017B0103
:100B60008A01FC0117821682838181FFCCC1CE01EC
:100B700001963C01F6019381F70193FD859193FF66
:100B800081917F01882309F4BAC1853239F493FD3C
:100B9000859193FF81917F01853229F4B60190E020
:100BA0000E949F07E7CF912C212C312CFFE1F315F8
:100BB000D8F08B3279F038F4803279F08332A1F4B6
:100BC000232D20611DC08D3261F0803369F4232D07
:100BD000216016C0832D8260382EE32DE4603E2E06
:100BE0002AC0F32DF8601DC037FC2DC020ED280F62
:100BF0002A3040F08E32B9F436FC81C1232D2064B6
:100C0000322E19C036FE06C08AE0989E200D1124AF
:100C1000922E11C0EAE02E9E200D1124222EF32DDB
:100C2000F0623F2E08C08C3621F4832D8068382E68
:100C300002C0883641F4F70193FD859193FF8191BD
:100C40007F018111B3CF982F9F7D9554933028F465
:100C50000C5F1F4F9FE399830DC0833631F08337BC
:100C600071F0833509F059C021C0F8018081898372
:100C70000E5F1F4F88248394912C530113C02801C9
:100C8000F2E04F0E511CF801A080B18036FE03C087
:100C9000692D70E002C06FEF7FEFC5010E949407DD
:100CA0004C018201F32DFF773F2E16C0280122E070
:100CB000420E511CF801A080B18036FE03C0692DA0
:100CC00070E002C06FEF7FEFC5010E9489074C0101
:100CD000F32DF0683F2E820133FC1BC0822D90E083
:100CE00088169906B0F4B60180E290E00E949F0752
:100CF0002A94F4CFF50137FC859137FE81915F018D
:100D0000B60190E00E949F0721102A9421E0821AE8
:100D100091088114910471F7E8C0843611F0893686
:100D200041F5F80137FE07C06081718182819381AE
:100D30000C5F1F4F08C060817181072E000C880B6B
:100D4000990B0E5F1F4FF32DFF763F2E97FF09C0C3
:100D500090958095709561957F4F8F4F9F4FF0686C
:100D60003F2E2AE030E0A3010E94DB07882E861880
:100D700045C0853731F4232D2F7EB22E2AE030E096
:100D800025C0932D997FB92E8F36C1F018F4883580
:100D900079F0B5C0803719F0883721F0B0C0E92F5D
:100DA000E061BE2EB4FE0DC0FB2DF460BF2E09C065
:100DB00034FE0AC0292F2660B22E06C028E030E09B
:100DC00005C020E130E002C020E132E0F801B7FECA
:100DD00007C060817181828193810C5F1F4F06C0C3
:100DE0006081718180E090E00E5F1F4FA3010E943F
:100DF000DB07882E8618FB2DFF773F2E36FE0DC0B1
:100E0000232D2E7FA22E891458F434FE0BC032FC01
:100E100009C0832D8E7EA82E05C0B82CA32C03C03C
:100E2000B82C01C0B92CA4FE0FC0FE01E80DF11DC5
:100E30008081803321F49A2D997EA92E09C0A2FECB
:100E400006C0B394B39404C08A2D867809F0B39495
:100E5000A3FC11C0A0FE06C0B21488F4280C922C8A
:100E60009B180EC0B21460F4B60180E290E00E94BC
:100E70009F07B394F7CFB21418F42B1802C0982C24
:100E8000212CA4FE10C0B60180E390E00E949F07D1
:100E9000A2FE17C0A1FC03C088E790E002C088E56D
:100EA00090E0B6010CC08A2D867859F0A1FE02C0F0
:100EB0008BE201C080E2A7FC8DE2B60190E00E94C7
:100EC0009F07891438F4B60180E390E00E949F07E1
:100ED0009A94F7CF8A94F301E80DF11D8081B60151
:100EE00090E00E949F078110F5CF222009F442CEA6
:100EF000B60180E290E00E949F072A94F6CFF601A7
:100F00008681978102C08FEF9FEF2B96E2E10C94D0
:100F10005508FC010590615070400110D8F780958C
:100F200090958E0F9F1F0895FC01615070400190B5
:100F30000110D8F7809590958E0F9F1F08950F93FD
:100F40001F93CF93DF93FB01238121FD03C08FEF1C
:100F50009FEF2CC022FF16C0468157812481358126
:100F60004217530744F4A081B1819D012F5F3F4F89
:100F7000318320838C93268137812F5F3F4F3783C6
:100F8000268314C08B01EC01FB010084F185E02D68
:100F90000995892BE1F6D80116968D919C911797AA
:100FA000019617969C938E931697CE01DF91CF9161
:100FB0001F910F910895FA01AA27283051F120318D
:100FC00081F1E8946F936E7F6E5F7F4F8F4F9F4FDD
:100FD000AF4FB1E03ED0B4E03CD0670F781F891F1F
:100FE0009A1FA11D680F791F8A1F911DA11D6A0FED
:100FF000711D811D911DA11D20D009F468943F91A0
:101000002AE0269F11243019305D3193DEF6CF019E
:101010000895462F4770405D4193B3E00FD0C9F764
:10102000F6CF462F4F70405D4A3318F0495D31FDD1
:101030004052419302D0A9F7EACFB4E0A695979524
:10104000879577956795BA95C9F7009761057105FA
:1010500008959B01AC010A2E069457954795379544
:101060002795BA95C9F7620F731F841F951FA01D9E
:1010700008952F923F924F925F926F927F928F923C
:101080009F92AF92BF92CF92DF92EF92FF920F9317
:101090001F93CF93DF93CDB7DEB7CA1BDB0B0FB621
:1010A000F894DEBF0FBECDBF09942A8839884888DE
:1010B0005F846E847D848C849B84AA84B984C88474
:1010C000DF80EE80FD800C811B81AA81B981CE0F6B
:1010D000D11D0FB6F894DEBF0FBECDBFED01089550
:0410E000F894FFCFB2
:0E10E40000000003000000002F03670300005F
:00000001FF
