:100000000C948D000C94AA000C94AA000C94AA00E5
:100010000C94F7000C94AA000C94AA000C94AA006B
:100020000C94AA000C94AA000C94AA000C94AA00A8
:100030000C94AA000C94AA000C9446080C94AA00F4
:100040000C94AA000C94AA000C9492070C945007EC
:100050000C94AA000C94AA000C94AA000C94AA0078
:100060000C94AA000C94AA002020005445454B4F44
:10007000002B2D2D2B2D2D2B2D2D2B2D2D2B2D2DE7
:100080002B007C20207C20207C20207C20207C20B9
:10009000207C002B2D2D2B2D2D2B2D2D2B2D2D2B85
:1000A0002D2D2B005072657373206120627574745E
:1000B0006F6E20746F207374617274206167616960
:1000C0006E0047414D45204F56455200435353451E
:1000D000323031302070726F6A656374206279202B
:1000E000486975205969204E414D203436363034E8
:1000F000353633005465656B6F001B5B3F32356CE2
:10010000001B5B25646D001B5B324A001B5B306D7E
:10011000001B5B25643B2564480011241FBECFEF04
:10012000D8E0DEBFCDBF12E0A0E0B1E0E0E3F8E14F
:1001300002C005900D92AE3BB107D9F724E0AEEBBB
:10014000B2E001C01D92AF31B207E1F70E948C0608
:100150000C94160C0C940000F894E8E6F0E0808112
:10016000826080838BB382608BBBECE6F0E08081A1
:100170008F6080831092CE02789480E00DC0E82FCB
:10018000F0E0EE0FFF1FEE0FFF1FE254FD4F108255
:100190001182128213828F5F843088F308958091D8
:1001A000CE02181614F58091CF026FB7F89491E043
:1001B00009C0F901E153FD4F4081F901E253FD4FC0
:1001C00040839F5F292F30E04091CE02042E000C27
:1001D000550B241735076CF39091CE0291509093F4
:1001E000CE0266231CF4789408958FEF08951F9231
:1001F0000F920FB60F921124CF92DF92EF92FF92DF
:100200000F931F932F933F934F935F936F937F931E
:100210008F939F93AF93BF93CF93DF93EF93FF930E
:10022000D6B1DF700E9436086B017C01C0E066C069
:100230000C2F10E08D2F90E00C2E02C09595879525
:100240000A94E2F79C012170332780FF3CC0809123
:10025000D30290E00C2E02C0959587950A94E2F7A0
:1002600080FD31C08091CE028430FCF4F801EE0FA5
:10027000FF1FEE0FFF1FE254FD4F80819181A2818D
:10028000B3814E96A11DB11DC816D906EA06FB061C
:1002900060F0E091CE0281E08E0F8093CE020E2EB0
:1002A000000CFF0BE153FD4FC0830E943608000F86
:1002B000111F000F111FF801E254FD4F608371837D
:1002C000828393831AC0232BC1F48091D30290E0E0
:1002D000002E02C0959587950A94E2F780FF0DC025
:1002E0000E943608000F111F000F111FF801E25481
:1002F000FD4F6083718382839383CF5FC43008F4A2
:1003000097CFD093D302FF91EF91DF91CF91BF911F
:10031000AF919F918F917F916F915F914F913F919D
:100320002F911F910F91FF90EF90DF90CF900F9042
:100330000FBE0F901F9018951F93CF93DF930E94CD
:10034000150881E20E94080810E025C0C12FD0E006
:10035000BE01660F771F6B5F7F4F8DE290E00E94BA
:10036000E50783E990E09F938F930E942809BE01DF
:100370006D5F7F4F660F771F8DE290E00E94E5076B
:1003800082E890E09F938F930E9428091F5F0F904F
:100390000F900F900F901530C8F26FE070E08DE273
:1003A00090E00E94E50781E790E09F938F930E9481
:1003B00028090E94F6070F900F90DF91CF911F91AF
:1003C000089565E070E08DE290E00E94E50780E22C
:1003D0000E9408088BE690E09F938F930E94280963
:1003E0000F900F900895CF93DF93C82FD62F4130F1
:1003F00031F0423031F0433031F48BE205C08AE213
:1004000003C089E201C088E20E94080867E070E04A
:100410006D1B71098C2F90E09C01220F331F820FFE
:10042000931F660F771F8E960E94E50788E690E07F
:100430009F938F930E9428090E94F6070F900F90B8
:10044000DF91CF9108950E949C0130E014C0832F6A
:1004500090E0FC01EE0FFF1FEE0FFF1FE80FF91FEA
:10046000E052FD4FE20FF11D10822F5F01C020E02E
:10047000253068F33F5F3530D0F381E08093F90297
:1004800082E0809302038093DF021092FD021092BB
:10049000DE021092040380E090E009C0FC01E2500B
:1004A000FD4F1082FC01E752FD4F1082019684300F
:1004B0009105A4F31092FC020895853080F4653014
:1004C00080F490E0FC01EE0FFF1FEE0FFF1FE80F1E
:1004D000F91FE052FD4FE60FF11D8081089580E085
:1004E000089580E00895CF93DF938091FD028823E3
:1004F00071F0D091DF02C09102036D2F8C2F0E940A
:100500005D02482F6D2F8C2F0E94F30107C043E03E
:100510006091DF02809102030E94F3019091FD023D
:1005200081E0891B8093FD02DF91CF910895809136
:10053000DE02843008F48DC080910403843008F416
:100540008AC020E030E07FC08091F9028230E1F57E
:1005500021C0FB01E250FD4F408150E0F901EE0F58
:10056000FF1FEE0FFF1FE80FF91FEE0FFF1FE050F8
:10057000FF4F0190F081E02D4E175F0709F41196AF
:10058000019602C080E090E08430910514F36F5F23
:100590007F4F04C060E070E0A0E0B0E0643071051F
:1005A0008CF3149709F04DC060E070E080E090E0BB
:1005B0000E94E5078EE692E09F938F930E941209B6
:1005C0000F900F9081E008958130D9F521C0FB0193
:1005D000E752FD4F408150E0F901EE0FFF1FEE0F93
:1005E000FF1FE80FF91FEE0FFF1FE050FF4F0190B4
:1005F000F081E02D4E175F0709F41196019602C0B5
:1006000080E090E08430910514F36F5F7F4F04C069
:1006100060E070E0A0E0B0E0643071058CF3149706
:1006200081F460E070E080E090E00E94E5078CE7F4
:1006300092E09F938F930E9412090F900F9082E097
:1006400008952F5F3F4F2C3231050CF47DCF80E0B1
:10065000089580E0089580E008951F93CF93DF937D
:100660008091DE02843028F080910403843008F009
:1006700078C0D091DF02C09102036D2F8C2F0E94B1
:100680005D0281119CC18C2F0C2E000C990B4091A6
:10069000F902FC01EE0FFF1FEE0FFF1FE80FF91F1D
:1006A000E052FD4FED0FF11DD7FDFA9540836D2F00
:1006B0008C2F0E94F3018091DF02082E000C990B11
:1006C0009C01220F331F220F331F820F931F209193
:1006D0000203820F911D27FD9A952091F902213086
:1006E000E1F49091DE02E92FF0E0E250FD4F8083CB
:1006F0009F5F9093DE028FE10E94080864E070E043
:100700008DE290E00E94E50789E892E09F938F9345
:100710000E9412090F900F901DC02230D9F49091C1
:100720000403E92FF0E0E752FD4F80839F5F909331
:10073000040380E20E94080864E070E08DE290E02B
:100740000E94E50783EA92E09F938F930E9412092B
:100750000F900F909091F90283E0891B8093F9022A
:100760002EC18091FC02882309F4A8C0C091DF0249
:100770001091FB02C11307C0909102038091DD022A
:10078000981709F41CC1D09102036C2F8D2F0E9481
:100790005D02811114C16C2FCC0F770B9B01220FCE
:1007A000331F220F331F260F371F8D2FDD0F990B9D
:1007B000280F391F4091F9024130D9F5E091FA0232
:1007C0000E2E000CFF0BE250FD4F20832091DD0226
:1007D000022E000C330BF901EE0FFF1FEE0FFF1F6F
:1007E000E20FF31FE052FD4FE10FF11D17FDFA95E7
:1007F00010829C01220F331F220F331F820F931F81
:1008000080529D4FFC01E60FF71F81E080838FE14E
:100810000E94080864E070E08DE290E00E94E50725
:1008200089E892E09F938F930E9412090F900F9096
:100830003CC04230D1F5E09103030E2E000CFF0BBB
:10084000E752FD4F20832091DD02022E000C330B76
:10085000F901EE0FFF1FEE0FFF1FE20FF31FE05233
:10086000FD4FE10FF11D17FDFA9510829C01220F3B
:10087000331F220F331F820F931F80529D4FFC01A5
:10088000E60FF71F82E0808380E20E94080864E0A0
:1008900070E08DE290E00E94E50783EA92E09F938A
:1008A0008F930E9412090F900F901092FC0290916A
:1008B000F90283E0891B8093F90281C0C091DF02B5
:1008C000D09102036C2F8D2F0E945D026C2FCC0FF4
:1008D000770B9B01220F331F220F331F620F731FF1
:1008E0009B012D0F311DD7FD3A95E901813099F516
:1008F0009091F902913079F580E20E94080864E055
:1009000070E08DE290E00E94E50783EA92E09F9319
:100910008F930E94120981E08093FC028091020370
:100920008093DD028091DF028093FB020F900F9095
:1009300080E090E00CC0FC01E250FD4F208130E0EF
:10094000C217D30719F48093FA0239C00196843094
:1009500091058CF334C0823091F58091F902823098
:1009600071F58FE10E94080864E070E08DE290E08C
:100970000E94E50789E892E09F938F930E941209F5
:1009800081E08093FC02809102038093DD028091DC
:10099000DF028093FB020F900F9080E090E00CC08C
:1009A000FC01E752FD4F208130E0C217D30719F454
:1009B0008093030304C00196843091058CF3DF918A
:1009C000CF911F910895CF93DF93D0E018C08D2F62
:1009D00090E0FC01EE0FFF1FEE0FFF1FE80FF91F65
:1009E000E052FD4FEC0FF11D40816C2F8D2F0E94C6
:1009F000F301CF5F01C0C0E0C53048F3DF5FD53001
:100A0000D0F3DF91CF910895CF93DF93262F90916C
:100A1000FC029923B9F130910203682F082E000CD3
:100A2000770B630F711D37FD7A959091DD02DB0125
:100A3000A91BB10997FDB3959091DF02422F022EB9
:100A4000000C550B490F511D97FD5A95E091FB0283
:100A5000EA01CE1BD109E7FDD395FE016530710592
:100A600034F41196139718F4830F809302034530E2
:100A7000510584F53196339768F5892F820F80935D
:100A8000DF0228C030910203082E000C990B830F5F
:100A9000911D37FD9A9565E070E00E946B08809388
:100AA000020388231CF484E0809302033091DF0268
:100AB000822F220F990B830F911D37FD9A9565E0C8
:100AC00070E00E946B088093DF0288231CF484E0AE
:100AD0008093DF020E949C010E94E304DF91CF918A
:100AE00008950E94AC0040E060E076E980E090E08C
:100AF0000E94FD060E941E08789408950E94FF0738
:100B00006AE070E08AE090E00E94E50784EF90E000
:100B10009F938F930E9428096CE070E08AE090E038
:100B20000E94E5078CEC90E09F938F930E94280928
:100B30000E94E1010F900F900F900F900E944407C8
:100B4000882339F08091190490911A040E94D408E6
:100B500001C08FEF833731F0833521F00E94CF0041
:100B60008F3F61F308950E94FF070E9423020E94B5
:100B7000CF000E944B0708958F929F92AF92BF9231
:100B8000CF92DF92EF92FF92CF93DF930E943608CD
:100B90006B017C01D0E08FC00E94CF00C82F0E9463
:100BA00044078823D9F08091190490911A040E9477
:100BB000D408D11106C08B3121F4DF5F8FEF9FEF96
:100BC00013C0D13031F48B3521F4DF5F8FEF9FEF0D
:100BD0000BC0D23031F0D0E09FEF06C081E09FEF34
:100BE00003C0982F8FEFD0E0873731F0873521F0A1
:100BF000913411F0C13059F461E080E00E940405A5
:100C000084EFC81A81E0D80AE108F10841C08136B2
:100C100031F0813421F0943411F0C33059F460E0A4
:100C20008FEF0E94040584EFC81A81E0D80AE1081A
:100C3000F1082EC0833731F0833521F0923411F062
:100C4000C1110BC06FEF80E00E94040584EFC81A49
:100C500081E0D80AE108F1081BC0843631F0843401
:100C600021F0933411F0C23059F460E081E00E9429
:100C7000040584EFC81A81E0D80AE108F10808C029
:100C8000803221F0803711F0803511F40E942D035D
:100C90000E9436084B015C01D701C6018C509E4F63
:100CA000AF4FBF4F88169906AA06BB0620F00E94D8
:100CB0007302750164010E949702882309F46CCFC6
:100CC000DF91CF91FF90EF90DF90CF90BF90AF90EA
:100CD0009F908F9008956EE070E08AE090E00E940F
:100CE000E50782EC90E09F938F930E9428096FE0C4
:100CF00070E08AE090E00E94E50784EA90E09F932C
:100D00008F930E9428090F900F900F900F900E94D0
:100D1000CF008F3FE1F308950E9471050E947E0588
:100D20000E94B3050E94BC050E946B06F9CFCF93C9
:100D3000C82F8A3019F48DE00E9497069FB79078EB
:100D400002C0992329F1809106038F3FD1F3F894D3
:100D5000E091050381E08E0F80930503F0E0E95FE9
:100D6000FC4FC083809106038F5F809306038091C0
:100D700005038F3F11F410920503E1ECF0E0808150
:100D800080628083992339F0789480E090E005C0F8
:100D900081E090E002C080E090E0CF9108958091E2
:100DA00018048823E1F32FB72078F8948091060483
:100DB0003091180490E0831B91095AF4E0910604E5
:100DC00080911804F0E0E81BF109E95EFB4F808197
:100DD0000AC0E091060480911804F0E0E81BF109D4
:100DE000E95FFB4F80819091180491509093180413
:100DF000222309F0789490E0089510920503109250
:100E000006031092060410921804109217044093DF
:100E1000D402DC01CB01880F991FAA1FBB1F880FCA
:100E2000991FAA1FBB1F9C01AD01220F331F441F36
:100E3000551F60E074E284EF90E00E947F08BA01E1
:100E4000A9014F5F5F4F6F4F7F4FDB01CA011AF45B
:100E50000196A11DB11DB595A79597958795019709
:100E60009093C5008093C400E1ECF0E088E18083BA
:100E7000808180688083E9E1F4E080E692E09383FA
:100E800082839183808308959091180481E0911169
:100E900001C080E00895109206041092180408958D
:100EA0001F920F920FB60F9211242F938F939F933F
:100EB000EF93FF9380910603882329F18091050326
:100EC0002091060390E0821B91095AF4E0910503FA
:100ED00080910603F0E0E81BF109EA5FFB4F908187
:100EE0000AC0E091050380910603F0E0E81BF109D8
:100EF000E95FFC4F90818091060381508093060347
:100F00009093C60005C0E1ECF0E080818F7D808386
:100F1000FF91EF919F918F912F910F900FBE0F90A6
:100F20001F9018951F920F920FB60F9211242F93B6
:100F30003F934F935F936F937F938F939F93AF9361
:100F4000BF93CF93EF93FF93C091C6008091D402DB
:100F5000882349F0809106038F3F29F060E070E01C
:100F60008C2F0E94970680911804803120F081E038
:100F70008093170418C0CD3009F4CAE0E09106044C
:100F800081E08E0F80930604F0E0E95FFB4FC083A1
:100F9000809118048F5F809318048091060480313B
:100FA00011F410920604FF91EF91CF91BF91AF9190
:100FB0009F918F917F916F915F914F913F912F9171
:100FC0000F900FBE0F901F9018959F938F937F9354
:100FD0006F9381E191E09F938F930E9428090F9076
:100FE0000F900F900F900F900F9008958CE091E06C
:100FF0009F938F930E9428090F900F90089587E088
:1010000091E09F938F930E9428090F900F9008956D
:101010001F928F9381E091E09F938F930E94280904
:101020000F900F900F900F9008958AEF90E09F938C
:101030008F930E9428090F900F9008951092D50267
:101040001092D6021092D7021092D80216BC89EFE5
:1010500087BD82E084BD83E085BDEEE6F0E080815F
:101060008260808385B3827085BB08958FB7282FF7
:101070002078F8946091D5027091D6028091D702C1
:101080009091D802222309F0789408951F920F922C
:101090000FB60F9211248F939F93AF93BF938091BC
:1010A000D5029091D602A091D702B091D8020196B4
:1010B000A11DB11D8093D5029093D602A093D702B3
:1010C000B093D802BF91AF919F918F910F900FBEB7
:1010D0000F901F90189597FB072E16F4009407D0D9
:1010E00077FD09D00E949E0807FC05D03EF490953C
:1010F00081959F4F0895709561957F4F0895052EB6
:1011000097FB1EF400940E94960857FD07D00E949A
:10111000B20807FC03D04EF40C9496085095409505
:10112000309521953F4F4F4F5F4F08959095809593
:10113000709561957F4F8F4F9F4F0895AA1BBB1BE2
:1011400051E107C0AA1FBB1FA617B70710F0A61BC7
:10115000B70B881F991F5A95A9F780959095BC01E8
:10116000CD010895A1E21A2EAA1BBB1BFD010DC0E3
:10117000AA1FBB1FEE1FFF1FA217B307E407F50747
:1011800020F0A21BB30BE40BF50B661F771F881F23
:10119000991F1A9469F760957095809590959B01B9
:1011A000AC01BD01CF010895CF93DF93EC012B81FA
:1011B00020FF33C026FF0AC02F7B2B838E819F81A7
:1011C00001969F838E838A8190E029C022FF0FC001
:1011D000E881F9818081082E000C990B009719F4A1
:1011E00020622B831AC03196F983E8830EC0EA850A
:1011F000FB85099597FF09C02B81019611F080E2CC
:1012000001C080E1822B8B8308C02E813F812F5F3C
:101210003F4F3F832E83992702C08FEF9FEFDF91CF
:10122000CF910895A0E0B0E0E8E1F9E00C94EF0B75
:10123000AE014B5F5F4FFA0161917191AF018091F7
:101240001B0490911C040E944E09E2E00C940B0CCC
:10125000A0E0B0E0EEE2F9E00C94ED0BAE01495FE6
:101260005F4FDA016D917D91AD0109E114E0F80164
:1012700082819381DC0113962C9113972860139639
:101280002C930E944E09D8011296ED91FC91139770
:101290002381277F2383E4E00C94090CABE0B0E0CA
:1012A000E4E5F9E00C94DF0B6C017B018A01FC01A1
:1012B00017821682838181FFCCC1CE0101963C0149
:1012C000F6019381F70193FD859193FF81917F0151
:1012D000882309F4BAC1853239F493FD859193FFCF
:1012E00081917F01853229F4B60190E00E94450B7F
:1012F000E7CF912C212C312CFFE1F315D8F08B3264
:1013000079F038F4803279F08332A1F4232D206112
:101310001DC08D3261F0803369F4232D216016C029
:10132000832D8260382EE32DE4603E2E2AC0F32DFB
:10133000F8601DC037FC2DC020ED280F2A3040F08A
:101340008E32B9F436FC81C1232D2064322E19C0AF
:1013500036FE06C08AE0989E200D1124922E11C000
:10136000EAE02E9E200D1124222EF32DF0623F2E56
:1013700008C08C3621F4832D8068382E02C0883650
:1013800041F4F70193FD859193FF81917F018111D4
:10139000B3CF982F9F7D9554933028F40C5F1F4F47
:1013A0009FE399830DC0833631F0833771F0833525
:1013B00009F059C021C0F801808189830E5F1F4F59
:1013C00088248394912C530113C02801F2E04F0E1E
:1013D000511CF801A080B18036FE03C0692D70E079
:1013E00002C06FEF7FEFC5010E943A0B4C018201F2
:1013F000F32DFF773F2E16C0280122E0420E511C2C
:10140000F801A080B18036FE03C0692D70E002C0F3
:101410006FEF7FEFC5010E942F0B4C01F32DF06899
:101420003F2E820133FC1BC0822D90E08816990666
:10143000B0F4B60180E290E00E94450B2A94F4CF0C
:10144000F50137FC859137FE81915F01B60190E08F
:101450000E94450B21102A9421E0821A91088114E0
:10146000910471F7E8C0843611F0893641F5F8012E
:1014700037FE07C060817181828193810C5F1F4FAD
:1014800008C060817181072E000C880B990B0E5FDC
:101490001F4FF32DFF763F2E97FF09C09095809543
:1014A000709561957F4F8F4F9F4FF0683F2E2AE0D8
:1014B00030E0A3010E94810B882E861845C0853735
:1014C00031F4232D2F7EB22E2AE030E025C0932D5B
:1014D000997FB92E8F36C1F018F4883579F0B5C0F0
:1014E000803719F0883721F0B0C0E92FE061BE2EB7
:1014F000B4FE0DC0FB2DF460BF2E09C034FE0AC03F
:10150000292F2660B22E06C028E030E005C020E179
:1015100030E002C020E132E0F801B7FE07C0608190
:101520007181828193810C5F1F4F06C06081718140
:1015300080E090E00E5F1F4FA3010E94810B882E78
:101540008618FB2DFF773F2E36FE0DC0232D2E7FF4
:10155000A22E891458F434FE0BC032FC09C0832D2E
:101560008E7EA82E05C0B82CA32C03C0B82C01C0B9
:10157000B92CA4FE0FC0FE01E80DF11D808180335F
:1015800021F49A2D997EA92E09C0A2FE06C0B3941B
:10159000B39404C08A2D867809F0B394A3FC11C0DB
:1015A000A0FE06C0B21488F4280C922C9B180EC022
:1015B000B21460F4B60180E290E00E94450BB3944F
:1015C000F7CFB21418F42B1802C0982C212CA4FECB
:1015D00010C0B60180E390E00E94450BA2FE17C048
:1015E000A1FC03C088E790E002C088E590E0B60166
:1015F0000CC08A2D867859F0A1FE02C08BE201C092
:1016000080E2A7FC8DE2B60190E00E94450B8914B0
:1016100038F4B60180E390E00E94450B9A94F7CF2E
:101620008A94F301E80DF11D8081B60190E00E94DB
:10163000450B8110F5CF222009F442CEB60180E29D
:1016400090E00E94450B2A94F6CFF601868197819F
:1016500002C08FEF9FEF2B96E2E10C94FB0BFC0195
:101660000590615070400110D8F7809590958E0FCD
:101670009F1F0895FC016150704001900110D8F740
:10168000809590958E0F9F1F08950F931F93CF9372
:10169000DF93FB01238121FD03C08FEF9FEF2CC05F
:1016A00022FF16C046815781248135814217530796
:1016B00044F4A081B1819D012F5F3F4F318320838E
:1016C0008C93268137812F5F3F4F3783268314C049
:1016D0008B01EC01FB010084F185E02D0995892B3C
:1016E000E1F6D80116968D919C9117970196179661
:1016F0009C938E931697CE01DF91CF911F910F91FE
:101700000895FA01AA27283051F1203181F1E89497
:101710006F936E7F6E5F7F4F8F4F9F4FAF4FB1E0E4
:101720003ED0B4E03CD0670F781F891F9A1FA11DDF
:10173000680F791F8A1F911DA11D6A0F711D811DE0
:10174000911DA11D20D009F468943F912AE0269FA5
:1017500011243019305D3193DEF6CF010895462F04
:101760004770405D4193B3E00FD0C9F7F6CF462FE5
:101770004F70405D4A3318F0495D31FD405241934E
:1017800002D0A9F7EACFB4E0A6959795879577950B
:101790006795BA95C9F700976105710508959B0192
:1017A000AC010A2E06945795479537952795BA951B
:1017B000C9F7620F731F841F951FA01D08952F92F4
:1017C0003F924F925F926F927F928F929F92AF92D1
:1017D000BF92CF92DF92EF92FF920F931F93CF931E
:1017E000DF93CDB7DEB7CA1BDB0B0FB6F894DEBFB5
:1017F0000FBECDBF09942A88398848885F846E84DB
:101800007D848C849B84AA84B984C884DF80EE8024
:10181000FD800C811B81AA81B981CE0FD11D0FB62D
:10182000F894DEBF0FBECDBFED010895F894FFCF51
:101830000000010002000300010002000300040098
:101840000500060007000800060007000800090060
:101850000A000B000C000D000B000C000D000E0028
:101860000F001000110012001000110012001300F0
:1018700014001500160017001500160017001800B8
:10188000000005000A000F0005000A000F00140008
:10189000010006000B00100006000B0010001500F0
:1018A000020007000C00110007000C0011001600D8
:1018B000030008000D00120008000D0012001700C0
:1018C000040009000E00130009000E0013001800A8
:1018D000000006000C00130006000C0012001800A7
:1018E000040008000C00100008000C001000140098
:1018F00005000B0011001700010007000D00130088
:10190000030007000B000F00150011000D00090077
:1019100000000100050006000100020006000700AB
:10192000020003000700080003000400080009008B
:10193000050006000A000B00060007000B000C0063
:10194000070008000C000D00080009000D000E0043
:101950000A000B000F0010000B000C00100011001B
:101960000C000D00110012000D000E0012001300FB
:101970000F001000140015001000110015001600D3
:1019800011001200160017001200130017001800B3
:1019900000000003000000009706CF060000706CF6
:1019A000617965722031202077696E00706C6179F1
:1019B000657220322077696E0043757272656E74AD
:1019C00020706C617965723A203220287265642932
:1019D00020200043757272656E7420706C617965A9
:0E19E000723A20312028677265656E2900007A
:00000001FF
